0359B46135372000            001010515         ES2800810693600002093621                              
0659B46135372000B60317005   010NOFER, S.L.                                                          
0659B46135372000B60317005   011AVENIDA DE LA FAMA, 118                                              
0659B46135372000B60317005   01208940CORNELLA DE LLOBREGAT(BARNA)                                    
0659B46135372000B60317005   01308940    BARCELONA                     ESPAÑA                        
0659B46135372000B60317005   01400000012050620150000000041490                                        
0659B46135372000B60317005   01500000012     353.38123012015000000004149HPAGO FACTURA   353.381      
0659B46135372000B95050027   010RECGAS, S.L.L.                                                       
0659B46135372000B95050027   011ALONSOTEGI ELKARTEGIA, MOD.12                                        
0659B46135372000B95050027   01248810ALOSONTEGI                                                      
0659B46135372000B95050027   01348810    VIZCAYA                       ESPAÑA                        
0659B46135372000B95050027   01400000023310320150000000605480                                        
0659B46135372000B95050027   01500000023      030.1531012015000000060548HPAGO FACTURA   030.15       
0859B46135372000               0000000646970000000014                                               
