0359B46135372000            001090215         ES2800810693600002093621                              
0659B46135372000B60317005   010NOFER, S.L.                                                          
0659B46135372000B60317005   011AVENIDA DE LA FAMA, 118                                              
0659B46135372000B60317005   01208940 CORNELLA DE LLOBREGAT(BARNA)                                   
0659B46135372000B60317005   013     BARCELONA                     ESPAÑA                            
0659B46135372000B60317005   01400000000090220150000000041490ES1                                    1
0659B46135372000B60317005   01500000000     353.38123012015000000004149HADJUNTAMOS PAGO FACTURA     
0659B46135372000B95050027   010RECGAS, S.L.L.                                                       
0659B46135372000B95050027   011ALONSOTEGI ELKARTEGIA, MOD.12                                        
0659B46135372000B95050027   01248810 ALOSONTEGI                                                     
0659B46135372000B95050027   013     VIZCAYA                       ESPAÑA                            
0659B46135372000B95050027   01400000000090220150000000605480ES1                                    1
0659B46135372000B95050027   01500000000      030.1531012015000000060548HADJUNTAMOS PAGO FACTURA     
0859B46135372000               0000000646970000000014                                               
