0156F46038881             001150115      2100620201022411091EUR         
0156F46038881             002Agricola de Catadau S.C. Suministros       
0156F46038881             003                                           
0156F46038881             004                                           
0656F46038881 B96308366   0100000000226560   0             19  0 NCEUR  
0656F46038881 B96308366   011TECNOVAL AGRICOLA SL                       
0656F46038881 B96308366   012POL IND SAUI 5 NAVE  2                     
0656F46038881 B96308366   01446640MOGENTE                               
0656F46038881 B96308366   016T110211A/000158       110211               
0656F46038881 B96308366   0100000000087440   0   0         19  0 NCEUR  
0656F46038881 B96308366   011TECNOVAL AGRICOLA SL                       
0656F46038881 B96308366   012POL IND SAUI 5 NAVE  2                     
0656F46038881 B96308366   01446640MOGENTE                               
0656F46038881 B96308366   016T170611A/000735       170611               
0856F46038881                000000031400000000020000000015             
