0359B46135372000            001171014         ES1830582122582720601696                              
0659B46135372000B60317005   010NOFER, S.L.                                                          
0659B46135372000B60317005   011AVENIDA DE LA FAMA, 118                                              
0659B46135372000B60317005   01208940CORNELLA DE LLOBREGAT(BARNA)                                    
0659B46135372000B60317005   01308940    BARCELONA                     ESPAÑA                        
0659B46135372000B60317005   01400000012010220150000000100000                                        
0659B46135372000B60317005   01500000012           101012015000000010000HPAGO FACTURA   1            
0659B46135372000B60317005   010NOFER, S.L.                                                          
0659B46135372000B60317005   011AVENIDA DE LA FAMA, 118                                              
0659B46135372000B60317005   01208940CORNELLA DE LLOBREGAT(BARNA)                                    
0659B46135372000B60317005   01308940    BARCELONA                     ESPAÑA                        
0659B46135372000B60317005   01400000023050620150000000041490                                        
0659B46135372000B60317005   01500000023     353.38123012015000000004149HPAGO FACTURA   353.381      
0859B46135372000               0000000141490000000014                                               
