0359B46135372000            001250516         ES2800810693600002093621                              
0659B46135372000B60317005   010NOFER, S.L.                                                          
0659B46135372000B60317005   011AVENIDA DE LA FAMA, 118                                              
0659B46135372000B60317005   01208940CORNELLA DE LLOBREGAT(BARNA)                                    
0659B46135372000B60317005   01308940    BARCELONA                     ESPA헤                        
0659B46135372000B60317005   01400000012010220150000000100000                                        
0659B46135372000B60317005   01500000012           101012015000000010000HPAGO FACTURA   1            
0659B46135372000B60317005   010NOFER, S.L.                                                          
0659B46135372000B60317005   011AVENIDA DE LA FAMA, 118                                              
0659B46135372000B60317005   01208940CORNELLA DE LLOBREGAT(BARNA)                                    
0659B46135372000B60317005   01308940    BARCELONA                     ESPA헤                        
0659B46135372000B60317005   01400000023050620150000000041490                                        
0659B46135372000B60317005   01500000023     353.38123012015000000004149HPAGO FACTURA   353.381      
0659B46135372000B95050027   010RECGAS, S.L.L.                                                       
0659B46135372000B95050027   011ALONSOTEGI ELKARTEGIA, MOD.12                                        
0659B46135372000B95050027   01248810ALOSONTEGI                                                      
0659B46135372000B95050027   01348810    VIZCAYA                       ESPA헤                        
0659B46135372000B95050027   01400000034310320150000000605480                                        
0659B46135372000B95050027   01500000034      030.1531012015000000060548HPAGO FACTURA   030.15       
0659B46135372000B96470190   010ARIADNA SOFTWARE, S.L.                                               
0659B46135372000B96470190   011URUGUAY, 11 OFICINA 101                                              
0659B46135372000B96470190   01246007VALENCIA                                                        
0659B46135372000B96470190   01346007    VALENCIA                                                    
0659B46135372000B96470190   01400000045300320150000000494160                                        
0659B46135372000B96470190   01500000045   A-350006528022015000000049416HPAGO FACTURA   A-3500065    
0659B46135372000A61213989   010GUNNEBO ESPA헤, S.A.                                                 
0659B46135372000A61213989   011JOSEP PLA, 2 EDIF.B-2 PLANTA11                                       
0659B46135372000A61213989   01208019BARCELONA                                                       
0659B46135372000A61213989   01308019    BARCELONA                                                   
0659B46135372000A61213989   01400000056180320150000000149390                                        
0659B46135372000A61213989   01500000056     501225618122014000000014939HPAGO FACTURA   5012256      
0659B46135372000B96083274   010COLUMBIA LINE, S.L.                                                  
0659B46135372000B96083274   011DR.CARLOS CABALLE LANCRY, 3 BA                                       
0659B46135372000B96083274   01246006VALENCIA                                                        
0659B46135372000B96083274   01346006    VALENCIA                                                    
0659B46135372000B96083274   01400000060310320150000000100670                                        
0659B46135372000B96083274   01500000060      00001731012015000000010067HPAGO FACTURA   000017       
0659B46135372000B96083274   010COLUMBIA LINE, S.L.                                                  
0659B46135372000B96083274   011DR.CARLOS CABALLE LANCRY, 3 BA                                       
0659B46135372000B96083274   01246006VALENCIA                                                        
0659B46135372000B96083274   01346006    VALENCIA                                                    
0659B46135372000B96083274   01400000071280420150000000033240                                        
0659B46135372000B96083274   01500000071         13728022015000000003324HPAGO FACTURA   137          
0659B46135372000B96083274   010COLUMBIA LINE, S.L.                                                  
0659B46135372000B96083274   011DR.CARLOS CABALLE LANCRY, 3 BA                                       
0659B46135372000B96083274   01246006VALENCIA                                                        
0659B46135372000B96083274   01346006    VALENCIA                                                    
0659B46135372000B96083274   01400000082280220150000000007470                                        
0659B46135372000B96083274   01500000082         92931122014000000000747HPAGO FACTURA   929          
0659B46135372000A41810920   010VIVA AGUA SERVICE, S.A.                                              
0659B46135372000A41810920   011RONDA AUGUSTE LUIS LUMIERE, NA                                       
0659B46135372000A41810920   01246980PATERNA                                                         
0659B46135372000A41810920   01346980    VALENCIA                                                    
0659B46135372000A41810920   01400000093300320150000000035490                                        
0659B46135372000A41810920   01500000093      V1214428022015000000003549HPAGO FACTURA   V12144       
0659B46135372000A28392694   010CONDUCTOS DE VENTILACION, S.A.                                       
0659B46135372000A28392694   011P.I.N.2 LA FUENSANTA P.7 Y 8                                         
0659B46135372000A28392694   01228936MOSTOLES                                                        
0659B46135372000A28392694   01328936    MADRID                                                      
0659B46135372000A28392694   01400000104201020140000000016540                                        
0659B46135372000A28392694   01500000104      40150731032014000000001654HPAGO FACTURA   401507       
0659B46135372000B46601746   010GRAFICAS RIVER, S.L.                                                 
0659B46135372000B46601746   011ACEQUIA DE MISLATA, 6                                                
0659B46135372000B46601746   01246200VALENCIA                                                        
0659B46135372000B46601746   01346200    VALENCIA                                                    
0659B46135372000B46601746   01400000115150420150000000295890                                        
0659B46135372000B46601746   01500000115         15515022015000000029589HPAGO FACTURA   155          
0659B46135372000B46601746   010GRAFICAS RIVER, S.L.                                                 
0659B46135372000B46601746   011ACEQUIA DE MISLATA, 6                                                
0659B46135372000B46601746   01246200VALENCIA                                                        
0659B46135372000B46601746   01346200    VALENCIA                                                    
0659B46135372000B46601746   01400000126150320150000000114950                                        
0659B46135372000B46601746   01500000126          2607012015000000011495HPAGO FACTURA   26           
0659B46135372000B46601746   010GRAFICAS RIVER, S.L.                                                 
0659B46135372000B46601746   011ACEQUIA DE MISLATA, 6                                                
0659B46135372000B46601746   01246200VALENCIA                                                        
0659B46135372000B46601746   01346200    VALENCIA                                                    
0659B46135372000B46601746   01400000130300320150000000173030                                        
0659B46135372000B46601746   01500000130          7120012015000000017303HPAGO FACTURA   71           
0659B46135372000B96567813   010GESTION Y ASESORAMIENTO, S.L.                                        
0659B46135372000B96567813   011DEL JUSTICIA, 1 ENTLO.PTA.13                                         
0659B46135372000B96567813   01246003VALENCIA                                                        
0659B46135372000B96567813   01346003    VALENCIA                                                    
0659B46135372000B96567813   01400000141010420150000003768270                                        
0659B46135372000B96567813   01500000141          1201042015000000376827HPAGO FACTURA   12           
0659B4613537200000          010*ACREEDORES VARIOS                                                   
0659B4613537200000          011x                                                                    
0659B4613537200000          01200000*** SIN ASIGNAR ***                                             
0659B4613537200000          01300000    *** SIN ASIGNAR ***                                         
0659B4613537200000          01400000152140220150000000208360                                        
0659B4613537200000          01500000152      A/642215012015000000020836HPAGO FACTURA   A/6422       
0659B46135372000B96449780   010LEHIDE GRUPOS DE PRESION, S.L.                                       
0659B46135372000B96449780   011GODOFREDO ROS, 5 BAJO                                                
0659B46135372000B96449780   01246006VALENCIA                                                        
0659B46135372000B96449780   01346006    VALENCIA                                                    
0659B46135372000B96449780   01400000163250420150000000870040                                        
0659B46135372000B96449780   01500000163     150011925022015000000087004HPAGO FACTURA   1500119      
0659B46135372000A46700027   010AUTOMOVILES PALMA, S.A.                                              
0659B46135372000A46700027   011AZAGADOR DE LA TORRE, 62                                             
0659B46135372000A46700027   01269103SEDAVI                                                          
0659B46135372000A46700027   013469103   VALENCIA                                                    
0659B46135372000A46700027   01400000174190320150000000069120                                        
0659B46135372000A46700027   01500000174       0153516022015000000006912HPAGO FACTURA   01535        
0659B46135372000B96358866   010NEUMATICOS TAMARIT, S.L.                                             
0659B46135372000B96358866   011LEVANTE, 15                                                          
0659B46135372000B96358866   01246026VALENCIA                                                        
0659B46135372000B96358866   01346026    VALENCIA                                                    
0659B46135372000B96358866   01400000185150320150000000484050                                        
0659B46135372000B96358866   01500000185       R/43328022015000000048405HPAGO FACTURA   R/433        
0659B46135372000B15616626   010RED OFISAT, S.L.U.                                                   
0659B46135372000B15616626   011ESLIDA, 1 Y 3 BAJO                                                   
0659B46135372000B15616626   01246026VALENCIA                                                        
0659B46135372000B15616626   01346026    VALENCIA                      ESPA헤                        
0659B46135372000B15616626   01400000196020220120000000020500                                        
0659B46135372000B15616626   01500000196     W2/06/803012012000000002050HPAGO FACTURA   W2/06/8      
0659B46135372000B46823571   010COPIADORAS DEL TURIA, S.L.                                           
0659B46135372000B46823571   011C/PINTOR SALVADOR ABRIL, 47                                          
0659B46135372000B46823571   01246005VALENCIA                                                        
0659B46135372000B46823571   01346005    VALENCIA                      ESPA헤                        
0659B46135372000B46823571   01400000200030320150000000016010                                        
0659B46135372000B46823571   01500000200      T-191425022015000000001601HPAGO FACTURA   T-1914       
0859B46135372000               0000007604150000000122                                               
