0156B46135372             001250516      0081069300020936211EUR         
0156B46135372             002Herbelca S.L.                              
0156B46135372             003                                           
0156B46135372             004                                           
0656B46135372 B60317005   01000000001000000810005000104201219  87NCEUR  
0656B46135372 B60317005   011NOFER, S.L.                                
0656B46135372 B60317005   012AVENIDA DE LA FAMA, 118                    
0656B46135372 B60317005   01408940CORNELLA DE LLOBREGAT(BARNA)          
0656B46135372 B60317005   016T0101151              010215               
0656B46135372 B60317005   01000000000414900810005000104201219  87NCEUR  
0656B46135372 B60317005   011NOFER, S.L.                                
0656B46135372 B60317005   012AVENIDA DE LA FAMA, 118                    
0656B46135372 B60317005   01408940CORNELLA DE LLOBREGAT(BARNA)          
0656B46135372 B60317005   016T230115353.381        050615               
0656B46135372 B95050027   01000000006054820950551910186697319  60NCEUR  
0656B46135372 B95050027   011RECGAS, S.L.L.                             
0656B46135372 B95050027   012ALONSOTEGI ELKARTEGIA, MOD.12              
0656B46135372 B95050027   01448810ALOSONTEGI                            
0656B46135372 B95050027   016T310115030.15         310315               
0656B46135372 B96470190   01000000004941621001864020000490819  93NCEUR  
0656B46135372 B96470190   011ARIADNA SOFTWARE, S.L.                     
0656B46135372 B96470190   012URUGUAY, 11 OFICINA 101                    
0656B46135372 B96470190   01446007VALENCIA                              
0656B46135372 B96470190   016T280215A-3500065      300315               
0656B46135372 A61213989   0100000000149390   0   0         19  0 NCEUR  
0656B46135372 A61213989   011GUNNEBO ESPAÑA, S.A.                       
0656B46135372 A61213989   012JOSEP PLA, 2 EDIF.B-2 PLANTA11             
0656B46135372 A61213989   01408019BARCELONA                             
0656B46135372 A61213989   016T1812145012256        180315               
0656B46135372 B96083274   01000000001006721004943220000255319  97NCEUR  
0656B46135372 B96083274   011COLUMBIA LINE, S.L.                        
0656B46135372 B96083274   012DR.CARLOS CABALLE LANCRY, 3 BA             
0656B46135372 B96083274   01446006VALENCIA                              
0656B46135372 B96083274   016T310115000017         310315               
0656B46135372 B96083274   01000000000332421004943220000255319  97NCEUR  
0656B46135372 B96083274   011COLUMBIA LINE, S.L.                        
0656B46135372 B96083274   012DR.CARLOS CABALLE LANCRY, 3 BA             
0656B46135372 B96083274   01446006VALENCIA                              
0656B46135372 B96083274   016T280215137            280415               
0656B46135372 B96083274   01000000000074721004943220000255319  97NCEUR  
0656B46135372 B96083274   011COLUMBIA LINE, S.L.                        
0656B46135372 B96083274   012DR.CARLOS CABALLE LANCRY, 3 BA             
0656B46135372 B96083274   01446006VALENCIA                              
0656B46135372 B96083274   016T311214929            280215               
0656B46135372 A41810920   0100000000035490   0   0         19  0 NCEUR  
0656B46135372 A41810920   011VIVA AGUA SERVICE, S.A.                    
0656B46135372 A41810920   012RONDA AUGUSTE LUIS LUMIERE, NA             
0656B46135372 A41810920   01446980PATERNA                               
0656B46135372 A41810920   016T280215V12144         300315               
0656B46135372 A28392694   0100000000016540   0   0         19  0 NCEUR  
0656B46135372 A28392694   011CONDUCTOS DE VENTILACION, S.A.             
0656B46135372 A28392694   012P.I.N.2 LA FUENSANTA P.7 Y 8               
0656B46135372 A28392694   01428936MOSTOLES                              
0656B46135372 A28392694   016T310314401507         201014               
0656B46135372 B46601746   0100000000295890   0   0         19  0 NCEUR  
0656B46135372 B46601746   011GRAFICAS RIVER, S.L.                       
0656B46135372 B46601746   012ACEQUIA DE MISLATA, 6                      
0656B46135372 B46601746   01446200VALENCIA                              
0656B46135372 B46601746   016T150215155            150415               
0656B46135372 B46601746   0100000000114950   0   0         19  0 NCEUR  
0656B46135372 B46601746   011GRAFICAS RIVER, S.L.                       
0656B46135372 B46601746   012ACEQUIA DE MISLATA, 6                      
0656B46135372 B46601746   01446200VALENCIA                              
0656B46135372 B46601746   016T07011526             150315               
0656B46135372 B46601746   0100000000173030   0   0         19  0 NCEUR  
0656B46135372 B46601746   011GRAFICAS RIVER, S.L.                       
0656B46135372 B46601746   012ACEQUIA DE MISLATA, 6                      
0656B46135372 B46601746   01446200VALENCIA                              
0656B46135372 B46601746   016T20011571             300315               
0656B46135372 B96567813   0100000003768270   0   0         19  0 NCEUR  
0656B46135372 B96567813   011GESTION Y ASESORAMIENTO, S.L.              
0656B46135372 B96567813   012DEL JUSTICIA, 1 ENTLO.PTA.13               
0656B46135372 B96567813   01446003VALENCIA                              
0656B46135372 B96567813   016T01041512             010415               
0656B46135372 00          0100000000208360   0   0         19  0 NCEUR  
0656B46135372 00          011*ACREEDORES VARIOS                         
0656B46135372 00          012x                                          
0656B46135372 00          01400000*** SIN ASIGNAR ***                   
0656B46135372 00          016T150115A/6422         140215               
0656B46135372 B96449780   0100000000870040   0   0         19  0 NCEUR  
0656B46135372 B96449780   011LEHIDE GRUPOS DE PRESION, S.L.             
0656B46135372 B96449780   012GODOFREDO ROS, 5 BAJO                      
0656B46135372 B96449780   01446006VALENCIA                              
0656B46135372 B96449780   016T2502151500119        250415               
0656B46135372 A46700027   0100000000069120   0   0         19  0 NCEUR  
0656B46135372 A46700027   011AUTOMOVILES PALMA, S.A.                    
0656B46135372 A46700027   012AZAGADOR DE LA TORRE, 62                   
0656B46135372 A46700027   01446910SEDAVI                                
0656B46135372 A46700027   016T16021501535          190315               
0656B46135372 B96358866   0100000000484050   0   0         19  0 NCEUR  
0656B46135372 B96358866   011NEUMATICOS TAMARIT, S.L.                   
0656B46135372 B96358866   012LEVANTE, 15                                
0656B46135372 B96358866   01446026VALENCIA                              
0656B46135372 B96358866   016T280215R/433          150315               
0656B46135372 B15616626   0100000000020500   0   0         19  0 NCEUR  
0656B46135372 B15616626   011RED OFISAT, S.L.U.                         
0656B46135372 B15616626   012ESLIDA, 1 Y 3 BAJO                         
0656B46135372 B15616626   01446026VALENCIA                              
0656B46135372 B15616626   016T030112W2/06/8        020212               
0656B46135372 B46823571   0100000000016010   0   0         19  0 NCEUR  
0656B46135372 B46823571   011COPIADORAS DEL TURIA, S.L.                 
0656B46135372 B46823571   012C/PINTOR SALVADOR ABRIL, 47                
0656B46135372 B46823571   01446005VALENCIA                              
0656B46135372 B46823571   016T250215T-1914         030315               
0856B46135372                000000760415000000200000000105             
